:100000000C942A000C9447000C9447000C94470071
:100010000C9447000C9447000C9447000C94470044
:100020000C9447000C9447000C945A090C94230933
:100030000C9447000C9447000C9447000C94470024
:100040000C9447000C9447000C9447000C94470014
:100050000C94470011241FBECFE5D4E0DEBFCDBF16
:1000600011E0A8E6B1E001C01D92AE36B107E1F79C
:1000700011E0A0E6B0E0E6E0F0E302C005900D92EA
:10008000A836B107D9F70E944F100C9401180C94B0
:100090000000EF92FF920F931F937B018C0120E0F1
:1000A00030E040E05FE40E94190388238CF0C8012F
:1000B000B70120E030E040E05FE40E94C1010E940F
:1000C000A7039B01AC01205030404040504806C07F
:1000D000C801B7010E94A7039B01AC01B901CA0185
:1000E0001F910F91FF90EF900895A0E0B0E0EBE733
:1000F000F0E00C94CA17DC012B01FA019C919230BC
:1001000008F439C1EB018881823008F433C194309E
:1001100069F4843009F02FC111969C91119789815F
:10012000981709F428C1A0E6B0E025C1843009F48D
:1001300021C18230A9F4923009F01DC19A01AD01AC
:1001400088E0EA010990AE01E90109929E0181501F
:10015000C1F7E201898111969C918923818308C1AD
:10016000923009F407C112962D903C901397EB0141
:100170008A819B811496AD90BD90CD90DC901797AD
:10018000EC80FD800E811F819101281B390BB90184
:1001900037FF04C066277727621B730B6032710537
:1001A0000CF061C0121613066CF537014801062EDB
:1001B00004C096948794779467940A94D2F721E0C8
:1001C00030E040E050E004C0220F331F441F551FB1
:1001D0006A95D2F721503040404050402E213F21B7
:1001E00040235123211531054105510521F021E01E
:1001F00030E040E050E079018A01E628F72808293C
:1002000019293CC0232BD1F1260E371E350146019A
:10021000062E04C096948794779467940A94D2F734
:1002200021E030E040E050E004C0220F331F441FC3
:10023000551F6A95D2F721503040404050402A2146
:100240003B214C215D21211531054105510521F04E
:1002500021E030E040E050E059016A01A628B728CB
:10026000C828D9280BC0821593052CF01C01AA249C
:10027000BB24650103C0EE24FF24870111969C91E5
:10028000D20111968C91981709F445C0992339F041
:10029000A80197012A193B094C095D0906C0A6016E
:1002A00095012E193F09400B510B57FD08C01182D3
:1002B0003382228224833583468357831DC081E0A5
:1002C00081833382228288279927DC01821B930B4A
:1002D000A40BB50B84839583A683B7830DC0220F2F
:1002E000331F441F551F24833583468357838281E0
:1002F000938101979383828324813581468157813D
:10030000DA01C9010197A109B1098F5F9F4FAF4F72
:10031000BF4328F30BC0918333822282EA0CFB1C7B
:100320000C1D1D1DE482F5820683178383E0808304
:10033000248135814681578157FF1AC0C901AA27F8
:1003400097FDA095BA2F81709070A070B0705695EF
:10035000479537952795822B932BA42BB52B848318
:100360009583A683B7838281938101969383828349
:10037000DF0101C0D201CD01CDB7DEB7E2E10C94BF
:10038000E617A0E2B0E0E7ECF1E00C94D617698341
:100390007A838B839C832D833E834F835887E9E048
:1003A000EE2EF12CEC0EFD1ECE010196B7010E943F
:1003B0001F058E010F5E1F4FCE010596B8010E94EA
:1003C0001F058A8991E089278A8BC701B801AE0190
:1003D000475E5F4F0E9475000E944A04A096E6E0C7
:1003E0000C94F217A0E2B0E0E8EFF1E00C94D6171D
:1003F00069837A838B839C832D833E834F835887C5
:10040000F9E0EF2EF12CEC0EFD1ECE010196B701A6
:100410000E941F058E010F5E1F4FCE010596B80189
:100420000E941F05C701B801AE01475E5F4F0E94E1
:1004300075000E944A04A096E6E00C94F217A0E230
:10044000B0E0E5E2F2E00C94CA1769837A838B830B
:100450009C832D833E834F835887CE010196BE0136
:10046000675F7F4F0E941F05CE010596BE016F5E3C
:100470007F4F0E941F059985923088F089898230CC
:10048000C8F0943019F4823051F404C0843029F457
:10049000923081F480E690E0C6C0923049F420E0CA
:1004A0009A858A89981321E02A87CE010996BBC0D4
:1004B000823049F420E09A858A89981321E02A8BBA
:1004C000CE014196B0C02D843E844F8458886D88FB
:1004D0007E888F88988CEE24FF248701AA24BB2471
:1004E000650140E050E060E070E0E0E0F0E0C10174
:1004F00081709070892BE9F0E60CF71C081D191D1E
:100500009A01AB012A0D3B1D4C1D5D1D80E090E062
:10051000A0E0B0E0E614F7040805190520F481E036
:1005200090E0A0E0B0E0BA01A901480F591F6A1F8E
:100530007B1FAA0CBB1CCC1CDD1C97FE08C081E0F5
:1005400090E0A0E0B0E0A82AB92ACA2ADB2A3196B6
:10055000E032F10549F0660C771C881C991C569412
:10056000479437942794C3CFFA85EA892B893C892D
:100570008B859C85280F391F2E5F3F4F17C0CA01FE
:1005800081709070892B61F016950795F794E79428
:1005900080E090E0A0E0B0E8E82AF92A0A2B1B2BC3
:1005A00076956795579547952F5F3F4F77FDE7CF36
:1005B0000CC0440F551F661F771F17FD4160EE0CDE
:1005C000FF1C001F111F21503040403090E05907A0
:1005D00090E0690790E4790760F32B8F3C8FDB0193
:1005E000CA018F779070A070B07080349105A1051A
:1005F000B10561F447FD0AC0E114F10401051105DC
:1006000029F0405C5F4F6F4F7F4F40781A8EFE1786
:1006100011F081E08A8F4D8F5E8F6F8F78A383E01A
:10062000898FCE0149960E944A04A096E2E10C947B
:10063000E617A8E1B0E0EFE1F3E00C94D617698388
:100640007A838B839C832D833E834F83588789E0F5
:10065000E82EF12CEC0EFD1ECE010196B7010E9492
:100660001F058E010F5E1F4FCE010596B8010E9437
:100670001F058985823040F08989823028F0C701C2
:10068000B8010E94970501C08FEF6896E6E00C94D0
:10069000F217A8E0B0E0EFE4F3E00C94D3179B016D
:1006A000AC0183E08983DA01C9018827B7FD83950E
:1006B0009927AA27BB27B82E2115310541055105D9
:1006C00019F482E089833AC08823A9F0203080E0C1
:1006D000380780E0480780E8580729F460E070E0B8
:1006E00080E09FEC30C0EE24FF248701E21AF30A79
:1006F000040B150B02C079018A018EE1C82ED12CA2
:10070000DC82CB82ED82FE820F831887C801B7019D
:100710000E94FB0301971816190684F4082E04C0E2
:10072000EE0CFF1C001F111F0A94D2F7ED82FE820F
:100730000F831887C81AD90ADC82CB82BA82CE010D
:1007400001960E944A042896E9E00C94EF17ACE069
:10075000B0E0EDEAF3E00C94DA1769837A838B83D7
:100760009C83CE010196BE016B5F7F4F0E941F05E7
:100770008D81823061F1823050F1843021F48E819C
:10078000882351F12EC02F81388537FD20C06E811E
:100790002F3131051CF06623F9F023C08EE190E083
:1007A000821B930B29853A854B855C8504C0569541
:1007B0004795379527958A95D2F76623B1F05095DE
:1007C0004095309521953F4F4F4F5F4F0EC020E031
:1007D00030E040E050E009C02FEF3FEF4FEF5FE720
:1007E00004C020E030E040E050E8B901CA012C9696
:1007F000E2E00C94F617EF92FF920F931F937B01A8
:100800008C0180E0E81680E0F80681E0080780E0CF
:10081000180788F48FEFE816F1040105110531F08F
:1008200028F088E090E0A0E0B0E017C080E090E021
:10083000A0E0B0E012C080E0E81680E0F80680E0BA
:10084000080781E0180728F088E190E0A0E0B0E018
:1008500004C080E190E0A0E0B0E020E230E040E0C1
:1008600050E0281B390B4A0B5B0B04C0169507950B
:10087000F794E7948A95D2F7F701E859FF4F808102
:10088000281B310941095109C9011F910F91FF909E
:10089000EF900895DF92EF92FF920F931F93FC0168
:1008A000E480F58006811781D1808081823048F410
:1008B00080E090E0A0E1B0E0E82AF92A0A2B1B2BA7
:1008C000A5C0843009F49FC0823021F4EE24FF24B7
:1008D000870105C0E114F1040105110519F4E0E0F8
:1008E000F0E096C0628173819FEF623879070CF067
:1008F0005BC022E83FEF261B370B2A3131052CF075
:1009000020E030E040E050E02AC0B801A701022E0C
:1009100004C076956795579547950A94D2F781E07C
:1009200090E0A0E0B0E004C0880F991FAA1FBB1F91
:100930002A95D2F70197A109B1098E219F21A02301
:10094000B1230097A105B10521F081E090E0A0E07E
:10095000B0E09A01AB01282B392B4A2B5B2BDA0133
:10096000C9018F779070A070B07080349105A10597
:10097000B10539F427FF09C0205C3F4F4F4F5F4F4F
:1009800004C0215C3F4F4F4F5F4FE0E0F0E020306C
:10099000A0E03A07A0E04A07A0E45A0710F0E1E01F
:1009A000F0E079018A0127C06038710564F5FB0128
:1009B000E158FF4FD801C7018F779070A070B070D9
:1009C00080349105A105B10539F4E7FE0DC080E43E
:1009D00090E0A0E0B0E004C08FE390E0A0E0B0E0E1
:1009E000E80EF91E0A1F1B1F17FF05C01695079575
:1009F000F794E794319687E016950795F794E79476
:100A00008A95D1F705C0EE24FF248701EFEFF0E0CF
:100A10006E2F679566276795902F9F77D794DD2473
:100A2000D7948E2F8695492F462B582F5D29B701D5
:100A3000CA011F910F91FF90EF90DF900895FC0184
:100A4000DB01408151812281622F6F7770E0221F8C
:100A50002227221F9381892F880F822B282F30E095
:100A6000991F9927991F11969C931197211531056C
:100A7000A9F5411551056105710511F482E037C0F2
:100A800082E89FEF13969C938E9312979A01AB0185
:100A900067E0220F331F441F551F6A95D1F783E08B
:100AA0008C930DC0220F331F441F551F12968D913A
:100AB0009C911397019713969C938E9312972030D5
:100AC00080E0380780E0480780E4580758F3149620
:100AD0002D933D934D935C93179708952F3F3105C8
:100AE00079F4411551056105710519F484E08C9381
:100AF000089564FF03C081E08C9312C01C9210C063
:100B00002F57304013963C932E93129783E08C938B
:100B100087E0440F551F661F771F8A95D1F77064D1
:100B200014964D935D936D937C93179708951F933F
:100B3000DC01FB019C91923008F447C08081823037
:100B400008F443C0943051F411961C91843099F507
:100B50008181682F70E0611B71093FC0843021F0F2
:100B6000923031F48230B9F18181882389F12DC02E
:100B700011961C9111978230F1F081811817D9F4E8
:100B800012962D913C91139782819381821793073E
:100B900094F028173907BCF014968D919D910D9013
:100BA000BC91A02D248135814681578128173907B2
:100BB0004A075B0718F4112341F00AC08217930714
:100BC000A407B50740F4112319F061E070E005C0F7
:100BD0006FEF7FEF02C060E070E0CB011F910895DE
:100BE000DF93CF930F92CDB7DEB781E06FE04FE098
:100BF0000E94590C0E94F0090E94FF090E94160AE7
:100C00000E94280A89830E941F0A81E06FE04981BF
:100C10000E94E60C68EE73E080E090E00E941D12F6
:100C2000EBCFDF93CF9300D00F92CDB7DEB77894A0
:100C300010926A0180E00E944A0A81E00E944A0AFA
:100C400080E061E00E94A30A81E061E00E94A30AC3
:100C50001B8212C080916A010E943D0B64EF71E01B
:100C600080E090E00E941D1280916A01865F80936F
:100C70006A018B818F5F8B838B818A3058F384E686
:100C800080936A011A8212C080916A010E943D0B12
:100C900064EF71E080E090E00E941D1280916A0193
:100CA0008A5080936A018A818F5F8A838A818A3021
:100CB00058F380E060E00E94A30A81E060E00E94B7
:100CC000A30A64EF71E080E090E00E941D1280E5CD
:100CD00080936A01198211C080E061E00E94A30A3A
:100CE00080916A010E943D0B68EE73E080E090E025
:100CF0000E941D1289818F5F89838981882361F316
:100D000080E060E00E94A30A0E94E7120F900F901B
:100D10000F90CF91DF910895DF93CF9300D00F9282
:100D2000CDB7DEB7789410926A0180E00E944A0A3B
:100D300081E00E944A0A80E061E00E94A30A81E00B
:100D400061E00E94A30A1B8212C080916A010E9486
:100D50002F0B64EF71E080E090E00E941D12809103
:100D60006A01865F80936A018B818F5F8B838B81A1
:100D70008A3058F384E680936A011A8212C0809107
:100D80006A010E942F0B64EF71E080E090E00E9406
:100D90001D1280916A018A5080936A018A818F5F57
:100DA0008A838A818A3058F380E060E00E94A30A37
:100DB00081E060E00E94A30A64EF71E080E090E0CF
:100DC0000E941D1280E580936A01198211C080E0A3
:100DD00061E00E94A30A80916A010E942F0B68EED5
:100DE00073E080E090E00E941D1289818F5F89830B
:100DF0008981882361F380E060E00E94A30A0E9459
:100E0000E7120F900F900F90CF91DF910895DF932D
:100E1000CF9300D00F92CDB7DEB780E00E9457117C
:100E200081E00E9457111A821B8237C019822FC09D
:100E300080E06B810E94EA1180E00E949C1165E0D5
:100E400070E080E090E00E941D1280E00E94C311DB
:100E500065E070E080E090E00E941D1281E06A8110
:100E60000E94EA1181E00E949C1165E070E080E040
:100E700090E00E941D1281E00E94C31165E070E0C5
:100E800080E090E00E941D1289818F5F89838981B3
:100E9000823370F28B818F5F8B838B818A3030F24B
:100EA0008A818F5F8A838A818A3009F0BDCF1A8256
:100EB000BBCFDF93CF9300D000D00F92CDB7DEB77A
:100EC0001D8281E00E942D0F81E00E94561081E07A
:100ED0000E94A4108823D9F381E00E94840F198214
:100EE0001A821B821C8213C081E00E94A4108823F6
:100EF00019F08D818F5F8D8389819A81AB81BC814F
:100F00000196A11DB11D89839A83AB83BC8389811E
:100F10009A81AB81BC81803828E3920721E0A20747
:100F200020E0B20708F38D818B3030F068EE73E07B
:100F300080E090E00E941D1281E00E94C70F68EEE1
:100F400073E080E090E00E941D121D82C0CFDF930D
:100F5000CF9300D000D00F92CDB7DEB71D8281E0D5
:100F60000E942D0F81E00E94561081E00E94A41083
:100F70008823D9F381E00E94840F19821A821B8290
:100F80001C8213C081E00E94A410882319F08D8177
:100F90008F5F8D8389819A81AB81BC810196A11D70
:100FA000B11D89839A83AB83BC8389819A81AB818C
:100FB000BC81803828E3920721E0A20720E0B20735
:100FC00008F38D818B3020F088EE93E00E94F112BF
:100FD00081E00E94C70F88EE93E00E94F1121D820B
:100FE000C4CFDF93CF9300D00F92CDB7DEB781E0AF
:100FF0000E942D0F82E00E942D0F83E00E942D0F92
:1010000081E089838981282F30E03B832A838A818C
:101010009B8182309105C9F02A813B8123303105C3
:1010200019F18A819B818130910561F781E00E94ED
:10103000840F68EE73E080E090E00E941D1281E072
:101040000E94C70F83E08983DDCF82E00E94840F76
:1010500068EE73E080E090E00E941D1282E00E9442
:10106000C70F81E08983CECF83E00E94840F68EEB2
:1010700073E080E090E00E941D1283E00E94C70FA1
:1010800082E08983BFCFDF93CF9300D00F92CDB79B
:10109000DEB781E00E942D0F82E00E942D0F83E0D9
:1010A0000E942D0F81E089838981282F30E03B83C6
:1010B0002A838A819B8182309105B9F02A813B8104
:1010C00023303105F9F08A819B818130910561F7E8
:1010D00081E00E94840F88EE93E00E94F11281E08B
:1010E0000E94C70F83E08983DFCF82E00E94840FD4
:1010F00088EE93E00E94F11282E00E94C70F81E027
:101100008983D2CF83E00E94840F88EE93E00E940F
:10111000F11283E00E94C70F82E08983C5CFDF937D
:10112000CF9300D00F92CDB7DEB781E00E942D0F94
:1011300082E00E942D0F83E00E942D0F81E08983C1
:101140008981282F30E03B832A838A819B818230EA
:101150009105B9F02A813B8123303105F9F08A816C
:101160009B818130910561F781E00E94840F88EEB8
:1011700093E00E94B71581E00E94C70F83E0898346
:10118000DFCF82E00E94840F88EE93E00E94B715C3
:1011900082E00E94C70F81E08983D2CF83E00E9462
:1011A000840F88EE93E00E94B71583E00E94C70F7A
:1011B00082E08983C5CFEF920F93DF93CF93CDB7B2
:1011C000DEB7789481E00E942D0F82E00E942D0FFF
:1011D00083E00E942D0F81E080936C0188E060E045
:1011E00043E020E00AEFEE246894E1F80E946D12DB
:1011F000FFCFEF920F93DF93CF93CDB7DEB7789405
:1012000083E00E94040E81E00E942D0F82E00E9484
:101210002D0F83E00E942D0F84E00E9456108091D4
:1012200068018130E1F783E080936C0188E060E041
:1012300043E020E00AEFEE246894E1F80E946D128A
:1012400010926801ECCF1F920F920FB60F921124EB
:101250002F933F934F935F936F937F938F939F93BE
:10126000AF93BF93EF93FF93DF93CF93CDB7DEB7E9
:1012700083E060E140E10E94E60C83E060E240E24E
:101280000E94E60CE2E5F0E080916D018083CF9151
:10129000DF91FF91EF91BF91AF919F918F917F91DE
:1012A0006F915F914F913F912F910F900FBE0F90D3
:1012B0001F9018951F920F920FB60F9211242F9323
:1012C0003F934F935F936F937F938F939F93AF93CE
:1012D000BF93EF93FF93DF93CF93CDB7DEB783E058
:1012E00060E140E00E94E60C83E060E240E00E94A2
:1012F000E60CCF91DF91FF91EF91BF91AF919F915C
:101300008F917F916F915F914F913F912F910F90AE
:101310000FBE0F901F901895EF920F93DF93CF930E
:101320000F92CDB7DEB7898389810E94040E80E0D9
:1013300060E045E020E000E0EE24E3940E946D12BE
:101340000F90CF91DF910F91EF900895DF93CF939E
:101350000F92CDB7DEB789830F90CF91DF910895BB
:10136000DF93CF9300D0CDB7DEB79A838983809186
:101370006B01E981FA8180830F900F90CF91DF910B
:101380000895EF920F93DF93CF93CDB7DEB780E050
:1013900060E043E020E000E0EE24E3940E946D1260
:1013A000CF91DF910F91EF900895DF93CF93CDB759
:1013B000DEB70E94E712CF91DF910895DF93CF93BC
:1013C000CDB7DEB7CF91DF910895DF93CF93CDB73F
:1013D000DEB70E94E7120E94500ECF91DF91089570
:1013E000DF93CF93CDB7DEB780E061E04FEF0E948F
:1013F000590C83E00E948C09CF91DF910895DF930F
:10140000CF93CDB7DEB780E061E041E00E94E60C0B
:101410006AE070E080E090E00E941D1280E061E0F0
:1014200040E00E94E60CCF91DF910895DF93CF93C7
:10143000CDB7DEB70E94C109CF91DF910895DF9348
:10144000CF93CDB7DEB70E94E509CF91DF91089524
:10145000DF93CF9300D0CDB7DEB7809168018823AA
:10146000E1F310926801CE0102960E94B0098A81D0
:1014700097E0692F0E949717898389810F900F90B9
:10148000CF91DF910895DF93CF93CDB7DEB7CF91A2
:10149000DF910895DF93CF9300D00F92CDB7DEB7E1
:1014A00089838981282F30E03B832A838A819B812D
:1014B000009731F02A813B812130310501F13DC097
:1014C00083E060E14FEF0E94590C83E060E140E06F
:1014D0000E94E60C83E064E04FEF0E94590C83E029
:1014E00064E040E00E94E60C83E068E04FEF0E9479
:1014F000590C83E068E040E00E94E60C1EC083E0E7
:1015000060E24FEF0E94590C83E060E240E00E94ED
:10151000E60C83E060E44FEF0E94590C83E060E446
:1015200040E00E94E60C83E060E84FEF0E94590C17
:1015300083E060E840E00E94E60C0F900F900F906F
:10154000CF91DF910895DF93CF93CDB7DEB7289782
:101550000FB6F894DEBF0FBECDBF89836A83898141
:10156000282F30E038872F838F819885009731F0BE
:101570002F81388521303105B1F168C08A81282F4B
:1015800030E03E832D838D819E8181309105A9F0CD
:101590002D813E8122303105D9F08D819E810097C9
:1015A00009F054C083E064E040E00E94E60C83E070
:1015B00068E040E00E94E60C49C083E064E040E05F
:1015C0000E94E60C83E068E048E00E94E60C3EC022
:1015D00083E064E044E00E94E60C83E068E040E0E1
:1015E0000E94E60C33C08A81282F30E03C832B8395
:1015F0008B819C8181309105A1F02B813C8122302F
:101600003105D1F08B819C81009701F583E060E486
:1016100040E00E94E60C83E060E840E00E94E60CB7
:1016200015C083E060E440E00E94E60C83E060E8DF
:1016300040E80E94E60C0AC083E060E440E40E94B7
:10164000E60C83E060E840E00E94E60C28960FB6C6
:10165000F894DEBF0FBECDBFCF91DF910895DF9329
:10166000CF930F92CDB7DEB78983898165E00E9461
:1016700047140F90CF91DF910895DF93CF930F928E
:10168000CDB7DEB78983898162E00E94EE160F90A4
:10169000CF91DF910895DF93CF9300D000D0CDB7E5
:1016A000DEB789836A838981282F30E03C832B83CE
:1016B0008B819C8181309105D1F02B813C8122303E
:1016C00031052CF48B819C81009761F01EC02B8129
:1016D0003C812230310581F08B819C8183309105E2
:1016E00081F013C0EAE3F0E08A8180830EC0E7E373
:1016F000F0E08A81808309C0E4E3F0E08A8180839E
:1017000004C0E1E3F0E08A8180830F900F900F9096
:101710000F90CF91DF910895DF93CF9300D000D049
:10172000CDB7DEB789836A838981282F30E03C8377
:101730002B838B819C8181309105D1F02B813C8161
:10174000223031052CF48B819C81009761F01EC002
:101750002B813C812230310581F08B819C8183304B
:10176000910581F013C0EBE3F0E08A8180830EC025
:10177000E8E3F0E08A81808309C0E5E3F0E08A8154
:10178000808304C0E2E3F0E08A8180830F900F90B1
:101790000F900F90CF91DF910895DF93CF9300D0FA
:1017A0000F92CDB7DEB789838981282F30E03B8344
:1017B0002A838A819B8181309105E9F02A813B81CE
:1017C000223031052CF48A819B81009761F02AC078
:1017D0002A813B8122303105B1F08A819B8183309F
:1017E0009105C9F01FC0ABE3B0E0EBE3F0E080810E
:1017F00080958C9317C0A8E3B0E0E8E3F0E0808127
:1018000080958C930FC0A5E3B0E0E5E3F0E0808124
:1018100080958C9307C0A2E3B0E0E2E3F0E0808122
:1018200080958C930F900F900F90CF91DF9108953A
:10183000DF93CF9300D000D0CDB7DEB78A838A8103
:10184000282F30E03C832B838B819C818130910554
:10185000D1F02B813C81223031052CF48B819C818D
:10186000009761F01EC02B813C812230310581F050
:101870008B819C818330910581F013C0E9E3F0E016
:10188000808189830EC0E6E3F0E08081898309C00E
:10189000E3E3F0E08081898304C0E0E3F0E080814D
:1018A000898389810F900F900F900F90CF91DF91D6
:1018B0000895DF93CF9300D000D00F92CDB7DEB75D
:1018C00089836A834B838981282F30E03D832C8371
:1018D0008C819D818130910569F12C813D8122307F
:1018E00031052CF48C819D81009769F067C02C81B3
:1018F0003D8122303105A9F18C819D818330910594
:1019000009F446C05BC08B81882359F4AAE3B0E098
:10191000EAE3F0E08081982F8A81809589238C9377
:101920004DC0AAE3B0E0EAE3F0E090818A81892B20
:101930008C9344C08B81882359F4A7E3B0E0E7E39C
:10194000F0E08081982F8A81809589238C9336C01E
:10195000A7E3B0E0E7E3F0E090818A81892B8C93E4
:101960002DC08B81882359F4A4E3B0E0E4E3F0E0D8
:101970008081982F8A81809589238C931FC0A4E34E
:10198000B0E0E4E3F0E090818A81892B8C9316C06B
:101990008B81882359F4A1E3B0E0E1E3F0E080819A
:1019A000982F8A81809589238C9308C0A1E3B0E0A9
:1019B000E1E3F0E090818A81892B8C930F900F9066
:1019C0000F900F900F90CF91DF910895DF93CF93F9
:1019D00000D000D00F92CDB7DEB789836A834B83E6
:1019E0008981282F30E03D832C838C819D8181303B
:1019F000910541F12C813D81223031052CF48C81FF
:101A00009D81009761F056C02C813D8122303105C7
:101A100061F18C819D8183309105D1F14BC0ABE3A5
:101A2000B0E0EBE3F0E08081982F8A8180958923F4
:101A30008C93ABE3B0E0EBE3F0E090818B81892BFA
:101A40008C9338C0A8E3B0E0E8E3F0E08081982F01
:101A50008A81809589238C93A8E3B0E0E8E3F0E0E5
:101A600090818B81892B8C9325C0A5E3B0E0E5E3C1
:101A7000F0E08081982F8A81809589238C93A5E35B
:101A8000B0E0E5E3F0E090818B81892B8C9312C06C
:101A9000A2E3B0E0E2E3F0E08081982F8A818095B4
:101AA00089238C93A2E3B0E0E2E3F0E090818B81A4
:101AB000892B8C930F900F900F900F900F90CF91D8
:101AC000DF910895DF93CF9300D000D0CDB7DEB77C
:101AD00089836A838981282F30E03C832B838B8123
:101AE0009C8181309105F1F02B813C8122303105C0
:101AF0002CF48B819C81009761F02EC02B813C815E
:101B000022303105C1F08B819C8183309105E1F059
:101B100023C0ABE3B0E0EBE3F0E090818A8189275A
:101B20008C931AC0A8E3B0E0E8E3F0E090818A81EA
:101B300089278C9311C0A5E3B0E0E5E3F0E0908144
:101B40008A8189278C9308C0A2E3B0E0E2E3F0E049
:101B500090818A8189278C930F900F900F900F901E
:101B6000CF91DF910895DF93CF9300D000D00F92F3
:101B7000CDB7DEB78A836B838A81282F30E03D831F
:101B80002C838C819D8181309105E1F02C813D81F8
:101B9000223031052CF48C819D81009761F026C0A4
:101BA0002C813D8122303105A1F08C819D818330D3
:101BB0009105B1F01BC0E9E3F0E090818B818923AE
:101BC000898314C0E6E3F0E090818B8189238983C7
:101BD0000DC0E3E3F0E090818B818923898306C007
:101BE000E0E3F0E090818B818923898389818823D8
:101BF00011F08FEF898389810F900F900F900F90D4
:101C00000F90CF91DF910895DF93CF9300D00F9283
:101C1000CDB7DEB78983F894ABE5B0E0EBE5F0E053
:101C2000808180648C9383E064E040E00E94590CE2
:101C30008981282F30E03B832A838A819B818130F0
:101C4000910581F02A813B812230310514F18A818E
:101C50009B818230910571F02A813B8123303105CF
:101C600089F017C0A5E5B0E0E5E5F0E0808184608B
:101C70008C930FC0A5E5B0E0E5E5F0E080818160E0
:101C80008C9307C0A5E5B0E0E5E5F0E080818360D6
:101C90008C9378940F900F900F90CF91DF910895CF
:101CA000DF93CF93CDB7DEB7F894ABE5B0E0EBE5CB
:101CB000F0E080818F7B8C93A5E5B0E0E5E5F0E076
:101CC00080818C7F8C937894CF91DF910895DF93FE
:101CD000CF9300D00F92CDB7DEB78983F894ABE5F0
:101CE000B0E0EBE5F0E0808180688C9383E068E011
:101CF00040E00E94590C8981282F30E03B832A83E1
:101D00008A819B818130910581F02A813B8122303B
:101D1000310514F18A819B818230910571F02A810D
:101D20003B812330310589F017C0A5E5B0E0E5E53A
:101D3000F0E0808184608C930FC0A5E5B0E0E5E51C
:101D4000F0E0808181608C9307C0A5E5B0E0E5E517
:101D5000F0E0808183608C9378940F900F900F90C7
:101D6000CF91DF910895DF93CF93CDB7DEB7F8948D
:101D7000ABE5B0E0EBE5F0E080818F778C93A5E5F3
:101D8000B0E0E5E5F0E080818C7F8C937894CF9192
:101D9000DF910895DF93CF9300D00F92CDB7DEB7D8
:101DA0008983F894ABE5B0E0EBE5F0E080818062F8
:101DB0008C9381E064E040E00E94590C8981282FD7
:101DC00030E03B832A838A819B818130910581F0B9
:101DD0002A813B812230310514F18A819B81823036
:101DE000910571F02A813B812330310589F017C0BC
:101DF000A5E5B0E0E5E5F0E0808184608C930FC05C
:101E0000A5E5B0E0E5E5F0E0808181608C9307C056
:101E1000A5E5B0E0E5E5F0E0808183608C937894FF
:101E20000F900F900F90CF91DF910895DF93CF9394
:101E3000CDB7DEB7F894ABE5B0E0EBE5F0E080813C
:101E40008F7D8C93A5E5B0E0E5E5F0E080818C7FA7
:101E50008C937894CF91DF910895DF93CF9300D046
:101E60000F92CDB7DEB789838981282F30E03B837D
:101E70002A838A819B818130910501F12A813B81EE
:101E8000223031052CF48A819B81009761F036C0A5
:101E90002A813B8122303105E1F08A819B818330A8
:101EA000910511F12BC081E061E04FEF0E94590CC8
:101EB00081E061E040E00E94E60C20C081E062E049
:101EC0004FEF0E94590C81E062E040E00E94E60C76
:101ED00015C081E064E04FEF0E94590C81E064E09E
:101EE00040E00E94E60C0AC081E068E04FEF0E94EB
:101EF000590C81E068E040E00E94E60C0F900F90E2
:101F00000F90CF91DF910895DF93CF9300D00F9280
:101F1000CDB7DEB789838981282F30E03B832A83C0
:101F20008A819B8181309105D9F02A813B812230C1
:101F300031052CF48A819B81009761F022C02A81AF
:101F40003B812230310591F08A819B81833091055C
:101F500099F017C081E061E041E00E94E60C11C0F9
:101F600081E062E042E00E94E60C0BC081E064E0A8
:101F700044E00E94E60C05C081E068E048E00E9471
:101F8000E60C0F900F900F90CF91DF910895DF93A3
:101F9000CF9300D00F92CDB7DEB789838981282FE8
:101FA00030E03B832A838A819B8181309105D9F07F
:101FB0002A813B81223031052CF48A819B81009754
:101FC00061F022C02A813B812230310591F08A8163
:101FD0009B818330910599F017C081E061E040E07A
:101FE0000E94E60C11C081E062E040E00E94E60C35
:101FF0000BC081E064E040E00E94E60C05C081E097
:1020000068E040E00E94E60C0F900F900F90CF9197
:10201000DF910895DF93CF9300D00F92CDB7DEB755
:102020008983E8E3F0E0808169810E94620D898103
:10203000282F30E03B832A838A819B818130910560
:10204000D1F02A813B81223031052CF48A819B8199
:10205000009761F01EC02A813B812230310581F05A
:102060008A819B818330910581F013C081E061E01A
:102070000E94620D0EC081E062E00E94620D09C004
:1020800081E064E00E94620D04C081E068E00E948B
:10209000620D0F900F900F90CF91DF910895DF9315
:1020A000CF93CDB7DEB70E948C06FFCFDF93CF93DF
:1020B00000D00F92CDB7DEB789838981282F30E019
:1020C0003B832A838A819B818230910531F12A8169
:1020D0003B812330310554F48A819B81009789F03C
:1020E0002A813B812130310591F028C08A819B8172
:1020F00083309105C1F02A813B8124303105C9F03C
:102100001DC082E060E140E00E94590C17C081E0F0
:1021100064E040E00E94590C11C080E064E040E0BF
:102120000E94590C0BC080E068E040E00E94590C0E
:1021300005C083E064E040E00E94590C0F900F90CE
:102140000F90CF91DF910895DF93CF9300D000D00F
:10215000CDB7DEB78A8319828A81282F30E03C838D
:102160002B838B819C818230910509F450C02B8197
:102170003C812330310554F48B819C81009799F088
:102180002B813C812130310541F189C08B819C81BB
:102190008330910509F454C02B813C8124303105F2
:1021A00009F466C07CC082E060E10E94B30D882320
:1021B00009F475C06EE170E080E090E00E941D12AD
:1021C00082E060E10E94B30D882309F468C082E0D8
:1021D00060E10E94B30D898362C081E064E00E94E7
:1021E000B30D882309F45BC06EE170E080E090E0FD
:1021F0000E941D1281E064E00E94B30D882309F45F
:102200004EC081E064E00E94B30D898348C080E045
:1022100064E00E94B30D882309F441C06EE170E0D0
:1022200080E090E00E941D1280E064E00E94B30D07
:102230008823A9F180E064E00E94B30D89832FC058
:1022400080E068E00E94B30D882349F16EE170E000
:1022500080E090E00E941D1280E068E00E94B30DD3
:102260008823E9F080E068E00E94B30D898317C0FD
:1022700083E064E00E94B30D882389F06EE170E092
:1022800080E090E00E941D1283E064E00E94B30DA4
:10229000882329F083E064E00E94B30D898389815B
:1022A0000F900F900F900F90CF91DF910895DF93D3
:1022B000CF9300D00F92CDB7DEB789838981282FC5
:1022C00030E03B832A838A819B81009731F02A8109
:1022D0003B8121303105B1F029C081E06FE04FEF43
:1022E0000E94590C81E06FE04FE00E94E60C83E011
:1022F00064E04FEF0E94590C83E064E044E00E94E8
:10230000E60C14C081E06FE04FEF0E94590C81E0B1
:102310006FE04FE00E94E60C83E068E04FEF0E9420
:10232000590C83E068E048E00E94E60C0F900F90A3
:102330000F90CF91DF910895DF93CF9300D00F924C
:10234000CDB7DEB789838981282F30E03B832A838C
:102350008A819B81009731F02A813B8121303105B0
:1023600039F00BC083E064E044E00E94E60C05C055
:1023700083E068E048E00E94E60C0F900F900F9019
:10238000CF91DF910895DF93CF9300D00F92CDB717
:10239000DEB789838981282F30E03B832A838A81B5
:1023A0009B81009731F02A813B812130310539F042
:1023B0000BC083E064E040E00E94E60C05C083E0CF
:1023C00068E040E00E94E60C0F900F900F90CF91D4
:1023D000DF910895DF93CF9300D000D0CDB7DEB763
:1023E00089836A838981282F30E03C832B838B810A
:1023F0009C81009731F02B813C812130310561F0C7
:1024000015C081E06FE040E00E94E60C81E06FE0E3
:102410004A810E94E60C0AC081E06FE040E00E9421
:10242000E60C81E06FE04A810E94E60C0F900F906D
:102430000F900F90CF91DF910895DF93CF93CDB799
:10244000DEB72C970FB6F894DEBF0FBECDBF6987FD
:102450007A878B879C871D821E821F82188627C0E1
:1024600019821A821B821C820BC089819A81AB81DE
:10247000BC810196A11DB11D89839A83AB83BC8366
:1024800089819A81AB81BC81813B21E0920720E068
:10249000A20720E0B20748F38D819E81AF81B88505
:1024A0000196A11DB11D8D839E83AF83B8872D81B9
:1024B0003E814F81588589859A85AB85BC852817D3
:1024C00039074A075B0760F22C960FB6F894DEBF17
:1024D0000FBECDBFCF91DF910895EF920F93DF93A1
:1024E000CF93CDB7DEB728970FB6F894DEBF0FBEF7
:1024F000CDBF89836A834B832C830D83EE828981D0
:10250000282F30E038872F838F819885009731F00E
:102510002F81388528303105A9F027C0E2E5F0E0A9
:102520008C818083E9E5F0E08E818083ECE5F0E04A
:102530008D818083E3E5F0E09B818A81892B80682F
:10254000808313C0E2E5F0E08C818083ECE5F0E06D
:102550008D818083E9E5F0E08E818083E3E5F0E022
:102560009B818A81892B8068808328960FB6F89496
:10257000DEBF0FBECDBFCF91DF910F91EF900895D9
:10258000DF93CF930F92CDB7DEB78983E2E5F0E01A
:10259000898180830F90CF91DF910895DF93CF934E
:1025A0000F92CDB7DEB7E2E5F0E0808189838981C3
:1025B0000F90CF91DF910895DF93CF93CDB7DEB722
:1025C000E3E5F0E081E08083CF91DF910895DF9330
:1025D000CF93CDB7DEB7E3E5F0E01082CF91DF9186
:1025E0000895EF920F93DF93CF9300D0CDB7DEB76E
:1025F0009A83898388E060E043E020E00AEFEE24DC
:102600000E946D1218C0E8E5F0E08081882F90E00C
:10261000827090700097B9F3A8E5B0E0E8E5F0E0CB
:10262000808182608C93E2E5F0E0108289819A815A
:1026300001979A83898389819A81009721F70E9463
:10264000E7120F900F90CF91DF910F91EF900895C7
:10265000EF920F93DF93CF9300D0CDB7DEB79A837D
:10266000898388E060E043E020E00AEFEE2468948C
:10267000E1F80E946D120F900F90CF91DF910F91B2
:10268000EF900895EF920F93DF93CF9300D000D097
:10269000CDB7DEB769837A838B839C8388E060E063
:1026A00041E020E000E1EE240E946D121DC0E2E551
:1026B000F0E09081ECE5F0E080819817C0F3A8E5A8
:1026C000B0E0E8E5F0E0808182608C93E2E5F0E044
:1026D000108289819A81AB81BC810197A109B109DE
:1026E00089839A83AB83BC8389819A81AB81BC81C6
:1026F0000097A105B105D9F60E94E7120F900F903F
:102700000F900F90CF91DF910F91EF900895DF938D
:10271000CF9300D000D0CDB7DEB789836A83E2E5DE
:10272000F0E01082E9E5F0E01082ECE5F0E089816C
:10273000882F90E0982F882724E630E0B9010E9486
:10274000A317CB0180838A81282F30E03C832B8321
:102750008B819C818330910529F12B813C81243030
:1027600031055CF48B819C818130910589F02B814E
:102770003C812230310589F023C08B819C818430DB
:102780009105A9F02B813C8125303105A9F018C0B5
:10279000E3E5F0E089E6808313C0E3E5F0E08AE654
:1027A00080830EC0E3E5F0E08BE6808309C0E3E5BB
:1027B000F0E08CE6808304C0E3E5F0E08DE6808302
:1027C0000F900F900F900F90CF91DF910895DF93AE
:1027D000CF9300D000D0CDB7DEB789836A83E2E51E
:1027E000F0E01082E9E5F0E01082ECE5F0E08981AC
:1027F000882F90E0982F882724E630E0B9010E94C6
:10280000A317CB0180838A81282F30E03C832B8360
:102810008B819C818330910529F12B813C8124306F
:1028200031055CF48B819C818130910589F02B818D
:102830003C812230310589F023C08B819C8184301A
:102840009105A9F02B813C8125303105A9F018C0F4
:10285000E3E5F0E081E6808313C0E3E5F0E082E6A3
:1028600080830EC0E3E5F0E083E6808309C0E3E502
:10287000F0E084E6808304C0E3E5F0E085E6808351
:102880000F900F900F900F90CF91DF910895EF92DE
:102890000F93DF93CF9300D000D000D0CDB7DEB739
:1028A0008B836C838B81843611F483E68B838C81DC
:1028B000282F30E03E832D838D819E8183309105CA
:1028C00031F02D813E8125303105B9F160C086E0BF
:1028D0008A838B81882F90E0AA2797FDA095BA2F35
:1028E000BC01CD010E944903DC01CB01BC01CD013B
:1028F00020E030E040E250E40E941F02DC01CB0106
:10290000BC01CD0120E030E040EC50E40E94F20137
:10291000DC01CB01BC01CD010E944900DC01CB01EF
:10292000898380E060E043E02A8109810F2EF3E093
:10293000EF2EF02D0E946D122AC01A828B81882FF3
:1029400090E0AA2797FDA095BA2FBC01CD010E9467
:102950004903DC01CB01BC01CD012AE037ED43E2A4
:1029600050E40E941F02DC01CB01BC01CD010E949A
:102970004900DC01CB01898380E060E045E02A81E9
:1029800009810F2EF3E0EF2EF02D0E946D128A8147
:1029900080936D0126960FB6F894DEBF0FBECDBFB3
:1029A000CF91DF910F91EF900895AF92CF92DF9288
:1029B000EF92FF920F931F93DF93CF93CDB7DEB7C4
:1029C0002F970FB6F894DEBF0FBECDBF89837B83F0
:1029D0006A834C833E832D8318870F83FA86E986AA
:1029E000DC86CB86AD868981282F30E03F872E8715
:1029F0008E859F858830910521F12E853F85283170
:102A0000310509F443C08E859F85009709F062C0A7
:102A1000EDE4F0E08D819E81892F99278083ECE49D
:102A2000F0E08D818083E9E5F0E08D858083EFE43F
:102A3000F0E08A8183608083EEE4F0E08C81808323
:102A400049C0EDE4F0E08D819E81892F9927808334
:102A5000ECE4F0E08D818083E9E5F0E08D85808312
:102A6000EBE4F0E08F819885892F99278083EAE451
:102A7000F0E08F818083EFE4F0E08A8183608083DF
:102A8000EEE4F0E08C818860808324C0EDE4F0E027
:102A90008D819E81892F99278083ECE4F0E08D81E0
:102AA0008083E9E5F0E08D858083E7E4F0E08B85C5
:102AB0009C85892F99278083E6E4F0E08B858083CD
:102AC000EFE4F0E08A8183608083EEE4F0E08C81C3
:102AD000886180832F960FB6F894DEBF0FBECDBFFE
:102AE000CF91DF911F910F91FF90EF90DF90CF90EA
:102AF000AF900895DF93CF9300D0CDB7DEB79A8320
:102B00008983EDE4F0E089819A81892F9927808378
:102B1000ECE4F0E0898180830F900F90CF91DF91FA
:102B20000895DF93CF930F92CDB7DEB7ECE4F0E0DA
:102B30008081918189838981882F90E00F90CF9146
:102B4000DF910895DF93CF93CDB7DEB7EEE4F0E0E9
:102B500081E08083CF91DF910895DF93CF93CDB74C
:102B6000DEB7EEE4F0E01082CF91DF910895AF92EE
:102B7000CF92DF92EF92FF920F931F93DF93CF9349
:102B800000D0CDB7DEB79A83898388E060E070E03B
:102B900043E020E030E00AEF10E0EE24FF24CC24F4
:102BA000DD24AA240E94D51419C0E8E5F0E0808154
:102BB000882F90E0807190700097B9F3A8E5B0E09D
:102BC000E8E5F0E0808180618C93ECE4F0E0118234
:102BD000108289819A8101979A83898389819A8158
:102BE000009719F70E94AD150F900F90CF91DF91CC
:102BF0001F910F91FF90EF90DF90CF90AF900895CD
:102C0000AF92CF92DF92EF92FF920F931F93DF93D9
:102C1000CF9300D000D0CDB7DEB769837A838B83A2
:102C20009C8388E060E070E041E020E030E000E17B
:102C300010E0EE24FF24CC24DD24AA240E94D51425
:102C40001EC0E8E5F0E08081882F90E080719070F0
:102C50000097B9F3A8E5B0E0E8E5F0E08081826094
:102C60008C93E2E5F0E0108289819A81AB81BC818E
:102C70000197A109B10989839A83AB83BC838981B8
:102C80009A81AB81BC810097A105B105D1F60E9464
:102C9000AD150F900F900F900F90CF91DF911F9176
:102CA0000F91FF90EF90DF90CF90AF900895DF935A
:102CB000CF9300D000D0CDB7DEB789836A83ECE430
:102CC000F0E011821082E9E5F0E01082EAE4F0E041
:102CD0008981282F30E0C901880F991F820F931F27
:102CE000880F991F880F991F880F991F91838083E0
:102CF0008A81282F30E03C832B838B819C81833019
:102D00009105C9F12B813C81243031055CF48B8124
:102D10009C818130910589F02B813C8122303105E5
:102D2000D9F055C08B819C818430910599F12B811C
:102D30003C8125303105E9F14AC0E6E4F0E083EC5E
:102D400099E091838083EFE4F0E082E88083EEE411
:102D5000F0E089E180833BC0E6E4F0E083EC99E0B9
:102D600091838083EFE4F0E082E88083EEE4F0E09A
:102D70008AE180832CC0E6E4F0E083EC99E0918363
:102D80008083EFE4F0E082E88083EEE4F0E08BE122
:102D900080831DC0E6E4F0E083EC99E091838083BA
:102DA000EFE4F0E082E88083EEE4F0E08CE1808301
:102DB0000EC0E6E4F0E083EC99E091838083EFE4D9
:102DC000F0E082E88083EEE4F0E08DE180830F9014
:102DD0000F900F900F90CF91DF910895DF93CF93D5
:102DE00000D000D0CDB7DEB789836A83ECE4F0E091
:102DF00011821082E9E5F0E01082EAE4F0E08981D6
:102E0000282F30E0C901880F991F820F931F880F68
:102E1000991F880F991F880F991F91838083E8E479
:102E2000F0E08981282F30E0C901880F991F820FB7
:102E3000931F880F991F880F991F880F991F9183DF
:102E400080838A81282F30E03C832B838B819C8177
:102E500083309105C9F12B813C81243031055CF42C
:102E60008B819C818130910589F02B813C812230BE
:102E70003105D9F055C08B819C818430910599F141
:102E80002B813C8125303105E9F14AC0E6E4F0E0D0
:102E900083EC99E091838083EFE4F0E082E8808323
:102EA000EEE4F0E081E180833BC0E6E4F0E083EC17
:102EB00099E091838083EFE4F0E082E88083EEE4A0
:102EC000F0E082E180832CC0E6E4F0E083EC99E05E
:102ED00091838083EFE4F0E082E88083EEE4F0E029
:102EE00083E180831DC0E6E4F0E083EC99E0918308
:102EF0008083EFE4F0E082E88083EEE4F0E084E1B8
:102F000080830EC0E6E4F0E083EC99E09183808357
:102F1000EFE4F0E082E88083EEE4F0E085E1808396
:102F20000F900F900F900F90CF91DF910895991B04
:102F300079E004C0991F961708F0961B881F7A95B0
:102F4000C9F78095089597FB092E07260AD077FDCB
:102F500004D00CD006D000201AF4709561957F4FF4
:102F60000895F6F7909581959F4F0895AA1BBB1B76
:102F700051E107C0AA1FBB1FA617B70710F0A61B79
:102F8000B70B881F991F5A95A9F780959095BC019A
:102F9000CD0108952F923F924F925F926F927F9250
:102FA0008F929F92AF92BF92CF92DF92EF92FF9259
:102FB0000F931F93CF93DF93CDB7DEB7CA1BDB0B05
:102FC0000FB6F894DEBF0FBECDBF09942A883988AA
:102FD00048885F846E847D848C849B84AA84B984B1
:102FE000C884DF80EE80FD800C811B81AA81B981BD
:102FF000CE0FD11D0FB6F894DEBF0FBECDBFED01D1
:063000000895F894FFCFD3
:1030060000000000000000000001020203030303A9
:103016000404040404040404050505050505050562
:103026000505050505050505060606060606060642
:10303600060606060606060606060606060606062A
:103046000606060606060606070707070707070712
:1030560007070707070707070707070707070707FA
:1030660007070707070707070707070707070707EA
:1030760007070707070707070707070707070707DA
:1030860007070707070707070808080808080808C2
:1030960008080808080808080808080808080808AA
:1030A600080808080808080808080808080808089A
:1030B600080808080808080808080808080808088A
:1030C600080808080808080808080808080808087A
:1030D600080808080808080808080808080808086A
:1030E600080808080808080808080808080808085A
:1030F600080808080808080808080808080808084A
:08310600080808080808080881
:00000001FF
